{
  "_format": "hh-sol-artifact-1",
  "contractName": "SoulboundToken",
  "sourceName": "contracts/SoulboundToken.sol",
  "abi": [
    {
      "inputs": [],
      "stateMutability": "nonpayable",
      "type": "constructor"
    },
    {
      "anonymous": false,
      "inputs": [
        {
          "indexed": true,
          "internalType": "address",
          "name": "owner",
          "type": "address"
        },
        {
          "indexed": true,
          "internalType": "address",
          "name": "approved",
          "type": "address"
        },
        {
          "indexed": true,
          "internalType": "uint256",
          "name": "tokenId",
          "type": "uint256"
        }
      ],
      "name": "Approval",
      "type": "event"
    },
    {
      "anonymous": false,
      "inputs": [
        {
          "indexed": true,
          "internalType": "address",
          "name": "owner",
          "type": "address"
        },
        {
          "indexed": true,
          "internalType": "address",
          "name": "operator",
          "type": "address"
        },
        {
          "indexed": false,
          "internalType": "bool",
          "name": "approved",
          "type": "bool"
        }
      ],
      "name": "ApprovalForAll",
      "type": "event"
    },
    {
      "anonymous": false,
      "inputs": [
        {
          "indexed": true,
          "internalType": "address",
          "name": "previousOwner",
          "type": "address"
        },
        {
          "indexed": true,
          "internalType": "address",
          "name": "newOwner",
          "type": "address"
        }
      ],
      "name": "OwnershipTransferred",
      "type": "event"
    },
    {
      "anonymous": false,
      "inputs": [
        {
          "indexed": true,
          "internalType": "address",
          "name": "from",
          "type": "address"
        },
        {
          "indexed": true,
          "internalType": "address",
          "name": "to",
          "type": "address"
        },
        {
          "indexed": true,
          "internalType": "uint256",
          "name": "tokenId",
          "type": "uint256"
        }
      ],
      "name": "Transfer",
      "type": "event"
    },
    {
      "inputs": [
        {
          "internalType": "address",
          "name": "entity",
          "type": "address"
        },
        {
          "internalType": "string",
          "name": "_entityName",
          "type": "string"
        },
        {
          "internalType": "uint256",
          "name": "_type",
          "type": "uint256"
        }
      ],
      "name": "addEntity",
      "outputs": [],
      "stateMutability": "nonpayable",
      "type": "function"
    },
    {
      "inputs": [
        {
          "internalType": "address",
          "name": "",
          "type": "address"
        },
        {
          "internalType": "uint256",
          "name": "",
          "type": "uint256"
        }
      ],
      "name": "approve",
      "outputs": [],
      "stateMutability": "pure",
      "type": "function"
    },
    {
      "inputs": [
        {
          "internalType": "address",
          "name": "",
          "type": "address"
        }
      ],
      "name": "balanceOf",
      "outputs": [
        {
          "internalType": "uint256",
          "name": "",
          "type": "uint256"
        }
      ],
      "stateMutability": "pure",
      "type": "function"
    },
    {
      "inputs": [
        {
          "internalType": "address",
          "name": "",
          "type": "address"
        }
      ],
      "name": "entities",
      "outputs": [
        {
          "internalType": "string",
          "name": "entityName",
          "type": "string"
        },
        {
          "internalType": "uint256",
          "name": "entityType",
          "type": "uint256"
        },
        {
          "internalType": "bool",
          "name": "active",
          "type": "bool"
        }
      ],
      "stateMutability": "view",
      "type": "function"
    },
    {
      "inputs": [
        {
          "internalType": "uint256",
          "name": "",
          "type": "uint256"
        }
      ],
      "name": "getApproved",
      "outputs": [
        {
          "internalType": "address",
          "name": "",
          "type": "address"
        }
      ],
      "stateMutability": "pure",
      "type": "function"
    },
    {
      "inputs": [
        {
          "internalType": "address",
          "name": "",
          "type": "address"
        },
        {
          "internalType": "address",
          "name": "",
          "type": "address"
        }
      ],
      "name": "isApprovedForAll",
      "outputs": [
        {
          "internalType": "bool",
          "name": "",
          "type": "bool"
        }
      ],
      "stateMutability": "pure",
      "type": "function"
    },
    {
      "inputs": [],
      "name": "name",
      "outputs": [
        {
          "internalType": "string",
          "name": "",
          "type": "string"
        }
      ],
      "stateMutability": "view",
      "type": "function"
    },
    {
      "inputs": [],
      "name": "ownPatientRecords",
      "outputs": [
        {
          "components": [
            {
              "internalType": "uint256",
              "name": "tokenId",
              "type": "uint256"
            },
            {
              "internalType": "uint256",
              "name": "timestamp",
              "type": "uint256"
            },
            {
              "internalType": "string",
              "name": "diagnosis",
              "type": "string"
            }
          ],
          "internalType": "struct SoulboundToken.Soulbound[]",
          "name": "",
          "type": "tuple[]"
        }
      ],
      "stateMutability": "view",
      "type": "function"
    },
    {
      "inputs": [],
      "name": "owner",
      "outputs": [
        {
          "internalType": "address",
          "name": "",
          "type": "address"
        }
      ],
      "stateMutability": "view",
      "type": "function"
    },
    {
      "inputs": [
        {
          "internalType": "uint256",
          "name": "tokenId",
          "type": "uint256"
        }
      ],
      "name": "ownerOf",
      "outputs": [
        {
          "internalType": "address",
          "name": "",
          "type": "address"
        }
      ],
      "stateMutability": "view",
      "type": "function"
    },
    {
      "inputs": [
        {
          "internalType": "address",
          "name": "patient",
          "type": "address"
        }
      ],
      "name": "patientRecords",
      "outputs": [
        {
          "components": [
            {
              "internalType": "uint256",
              "name": "tokenId",
              "type": "uint256"
            },
            {
              "internalType": "uint256",
              "name": "timestamp",
              "type": "uint256"
            },
            {
              "internalType": "string",
              "name": "diagnosis",
              "type": "string"
            }
          ],
          "internalType": "struct SoulboundToken.Soulbound[]",
          "name": "",
          "type": "tuple[]"
        }
      ],
      "stateMutability": "view",
      "type": "function"
    },
    {
      "inputs": [],
      "name": "renounceOwnership",
      "outputs": [],
      "stateMutability": "nonpayable",
      "type": "function"
    },
    {
      "inputs": [
        {
          "internalType": "address",
          "name": "to",
          "type": "address"
        },
        {
          "internalType": "string",
          "name": "diagnosis",
          "type": "string"
        }
      ],
      "name": "safeMint",
      "outputs": [
        {
          "internalType": "uint256",
          "name": "",
          "type": "uint256"
        }
      ],
      "stateMutability": "nonpayable",
      "type": "function"
    },
    {
      "inputs": [
        {
          "internalType": "address",
          "name": "",
          "type": "address"
        },
        {
          "internalType": "address",
          "name": "",
          "type": "address"
        },
        {
          "internalType": "uint256",
          "name": "",
          "type": "uint256"
        }
      ],
      "name": "safeTransferFrom",
      "outputs": [],
      "stateMutability": "pure",
      "type": "function"
    },
    {
      "inputs": [
        {
          "internalType": "address",
          "name": "",
          "type": "address"
        },
        {
          "internalType": "address",
          "name": "",
          "type": "address"
        },
        {
          "internalType": "uint256",
          "name": "",
          "type": "uint256"
        },
        {
          "internalType": "bytes",
          "name": "",
          "type": "bytes"
        }
      ],
      "name": "safeTransferFrom",
      "outputs": [],
      "stateMutability": "pure",
      "type": "function"
    },
    {
      "inputs": [
        {
          "internalType": "address",
          "name": "",
          "type": "address"
        },
        {
          "internalType": "bool",
          "name": "",
          "type": "bool"
        }
      ],
      "name": "setApprovalForAll",
      "outputs": [],
      "stateMutability": "pure",
      "type": "function"
    },
    {
      "inputs": [
        {
          "internalType": "bytes4",
          "name": "interfaceId",
          "type": "bytes4"
        }
      ],
      "name": "supportsInterface",
      "outputs": [
        {
          "internalType": "bool",
          "name": "",
          "type": "bool"
        }
      ],
      "stateMutability": "view",
      "type": "function"
    },
    {
      "inputs": [],
      "name": "symbol",
      "outputs": [
        {
          "internalType": "string",
          "name": "",
          "type": "string"
        }
      ],
      "stateMutability": "view",
      "type": "function"
    },
    {
      "inputs": [
        {
          "internalType": "uint256",
          "name": "tokenId",
          "type": "uint256"
        }
      ],
      "name": "tokenURI",
      "outputs": [
        {
          "internalType": "string",
          "name": "",
          "type": "string"
        }
      ],
      "stateMutability": "view",
      "type": "function"
    },
    {
      "inputs": [],
      "name": "totalIssued",
      "outputs": [
        {
          "internalType": "uint256",
          "name": "",
          "type": "uint256"
        }
      ],
      "stateMutability": "view",
      "type": "function"
    },
    {
      "inputs": [
        {
          "internalType": "address",
          "name": "",
          "type": "address"
        },
        {
          "internalType": "address",
          "name": "",
          "type": "address"
        },
        {
          "internalType": "uint256",
          "name": "",
          "type": "uint256"
        }
      ],
      "name": "transferFrom",
      "outputs": [],
      "stateMutability": "pure",
      "type": "function"
    },
    {
      "inputs": [
        {
          "internalType": "address",
          "name": "newOwner",
          "type": "address"
        }
      ],
      "name": "transferOwnership",
      "outputs": [],
      "stateMutability": "nonpayable",
      "type": "function"
    }
  ],
  "bytecode": "0x60806040523480156200001157600080fd5b50604080518082018252600781526614dbdd5b13595960ca1b602080830191825283518085018552600381526214d35160ea1b81830152845191820190945260008082528351939493919262000067926200012d565b5081516200007d9060019060208501906200012d565b508051620000939060029060208401906200012d565b50505050620000b1620000ab620000ce60201b60201c565b620000d2565b620000c860056200012460201b62000c721760201c565b62000210565b3390565b600480546001600160a01b038381166001600160a01b0319831681179093556040519116919082907f8be0079c531659141344cd1fd0a4f28419497f9722a3daafe3b4186f6b6457e090600090a35050565b80546001019055565b8280546200013b90620001d3565b90600052602060002090601f0160209004810192826200015f5760008555620001aa565b82601f106200017a57805160ff1916838001178555620001aa565b82800160010185558215620001aa579182015b82811115620001aa5782518255916020019190600101906200018d565b50620001b8929150620001bc565b5090565b5b80821115620001b85760008155600101620001bd565b600181811c90821680620001e857607f821691505b602082108114156200020a57634e487b7160e01b600052602260045260246000fd5b50919050565b61189280620002206000396000f3fe608060405234801561001057600080fd5b50600436106101825760003560e01c806370a08231116100d8578063b88d4fde1161008c578063e985e9c511610066578063e985e9c51461030b578063f2fde38b14610319578063f5be31931461032c57600080fd5b8063b88d4fde146102d7578063c87b56dd146102e5578063d204c45e146102f857600080fd5b80638da5cb5b116100bd5780638da5cb5b146102b057806395d89b41146102c1578063a22cb465146102c957600080fd5b806370a0823114610287578063715018a6146102a857600080fd5b8063200a1b911161013a5780634d465438116101145780634d465438146102595780634f0348851461026c5780636352211e1461027457600080fd5b8063200a1b911461022657806323b872dd1461024657806342842e0e1461024657600080fd5b8063081812fc1161016b578063081812fc146101c4578063095ea7b3146101ef5780631d8ee48a1461020457600080fd5b806301ffc9a71461018757806306fdde03146101af575b600080fd5b61019a610195366004611585565b610334565b60405190151581526020015b60405180910390f35b6101b76103d1565b6040516101a691906116ea565b6101d76101d23660046115bd565b610463565b6040516001600160a01b0390911681526020016101a6565b6102026101fd36600461155c565b6104bd565b005b610217610212366004611364565b61050f565b6040516101a6939291906116fd565b610239610234366004611364565b6105bd565b6040516101a6919061166c565b6102026102543660046113b0565b610739565b610202610267366004611507565b61078b565b610239610870565b6101d76102823660046115bd565b610980565b61029a610295366004611364565b6109e5565b6040519081526020016101a6565b610202610a3a565b6004546001600160a01b03166101d7565b6101b7610a4e565b6102026101fd366004611481565b6102026102543660046113eb565b6101b76102f33660046115bd565b610a5d565b61029a6103063660046114bb565b610ac4565b61019a6101d236600461137e565b610202610327366004611364565b610bc6565b61029a610c56565b60006001600160e01b031982167f80ac58cd00000000000000000000000000000000000000000000000000000000148061039757506001600160e01b031982167f5b5e139f00000000000000000000000000000000000000000000000000000000145b806103cb57507f01ffc9a7000000000000000000000000000000000000000000000000000000006001600160e01b03198316145b92915050565b6060600080546103e09061179a565b80601f016020809104026020016040519081016040528092919081815260200182805461040c9061179a565b80156104595780601f1061042e57610100808354040283529160200191610459565b820191906000526020600020905b81548152906001019060200180831161043c57829003601f168201915b5050505050905090565b60405162461bcd60e51b815260206004820152602160248201527f417070726f76616c73206172652070726f6869626974656420666f72205342546044820152607360f81b60648201526000906084015b60405180910390fd5b60405162461bcd60e51b815260206004820152602160248201527f417070726f76616c73206172652070726f6869626974656420666f72205342546044820152607360f81b60648201526084016104b4565b60066020526000908152604090208054819061052a9061179a565b80601f01602080910402602001604051908101604052809291908181526020018280546105569061179a565b80156105a35780601f10610578576101008083540402835291602001916105a3565b820191906000526020600020905b81548152906001019060200180831161058657829003601f168201915b50505050600183015460029093015491929160ff16905083565b3360009081526006602052604090206002015460609060ff166106225760405162461bcd60e51b815260206004820152600e60248201527f4e6f7420616e20656e746974792100000000000000000000000000000000000060448201526064016104b4565b6001600160a01b038216600090815260076020908152604080832080548251818502810185019093528083529193909284015b8282101561072d5783829060005260206000209060030201604051806060016040529081600082015481526020016001820154815260200160028201805461069c9061179a565b80601f01602080910402602001604051908101604052809291908181526020018280546106c89061179a565b80156107155780601f106106ea57610100808354040283529160200191610715565b820191906000526020600020905b8154815290600101906020018083116106f857829003601f168201915b50505050508152505081526020019060010190610655565b5050505090505b919050565b60405162461bcd60e51b815260206004820152602160248201527f5472616e7366657273206172652070726f6869626974656420666f72205342546044820152607360f81b60648201526084016104b4565b610793610c7b565b6001600160a01b03831660009081526006602052604090206002015460ff16156107ff5760405162461bcd60e51b815260206004820152601660248201527f456e7469747920616c726561647920657869737473210000000000000000000060448201526064016104b4565b6040805160608101825283815260208082018490526001828401526001600160a01b038616600090815260068252929092208151805192939192610846928492019061122d565b50602082015160018201556040909101516002909101805460ff1916911515919091179055505050565b336000908152600760209081526040808320805482518185028101850190935280835260609492939192909184015b82821015610977578382906000526020600020906003020160405180606001604052908160008201548152602001600182015481526020016002820180546108e69061179a565b80601f01602080910402602001604051908101604052809291908181526020018280546109129061179a565b801561095f5780601f106109345761010080835404028352916020019161095f565b820191906000526020600020905b81548152906001019060200180831161094257829003601f168201915b5050505050815250508152602001906001019061089f565b50505050905090565b6000818152600360205260408120546001600160a01b0316806103cb5760405162461bcd60e51b815260206004820152601860248201527f4552433732313a20696e76616c696420746f6b656e204944000000000000000060448201526064016104b4565b60405162461bcd60e51b815260206004820152602160248201527f5472616e7366657273206172652070726f6869626974656420666f72205342546044820152607360f81b60648201526000906084016104b4565b610a42610c7b565b610a4c6000610cd5565b565b6060600180546103e09061179a565b6060610a6882610d34565b6000610a72610d98565b90506000815111610a925760405180602001604052806000815250610abd565b80610a9c84610da7565b604051602001610aad929190611601565b6040516020818303038152906040525b9392505050565b3360009081526006602052604081206002015460ff16610b265760405162461bcd60e51b815260206004820152600e60248201527f4e6f7420616e20656e746974792100000000000000000000000000000000000060448201526064016104b4565b6000610b3160055490565b9050610b41600580546001019055565b610b4b8482610efd565b6001600160a01b038416600090815260076020908152604080832081516060810183528581524281850190815292810188815282546001818101855593875295859020825160039097020195865592519185019190915590518051919392610bbb9260028501929091019061122d565b509195945050505050565b610bce610c7b565b6001600160a01b038116610c4a5760405162461bcd60e51b815260206004820152602660248201527f4f776e61626c653a206e6577206f776e657220697320746865207a65726f206160448201527f646472657373000000000000000000000000000000000000000000000000000060648201526084016104b4565b610c5381610cd5565b50565b60006001610c6360055490565b610c6d9190611753565b905090565b80546001019055565b6004546001600160a01b03163314610a4c5760405162461bcd60e51b815260206004820181905260248201527f4f776e61626c653a2063616c6c6572206973206e6f7420746865206f776e657260448201526064016104b4565b600480546001600160a01b0383811673ffffffffffffffffffffffffffffffffffffffff19831681179093556040519116919082907f8be0079c531659141344cd1fd0a4f28419497f9722a3daafe3b4186f6b6457e090600090a35050565b6000818152600360205260409020546001600160a01b0316610c535760405162461bcd60e51b815260206004820152601860248201527f4552433732313a20696e76616c696420746f6b656e204944000000000000000060448201526064016104b4565b6060600280546103e09061179a565b606081610de757505060408051808201909152600181527f3000000000000000000000000000000000000000000000000000000000000000602082015290565b8160005b8115610e115780610dfb816117d5565b9150610e0a9050600a8361173f565b9150610deb565b60008167ffffffffffffffff811115610e3a57634e487b7160e01b600052604160045260246000fd5b6040519080825280601f01601f191660200182016040528015610e64576020820181803683370190505b5090505b8415610ef557610e79600183611753565b9150610e86600a866117f0565b610e91906030611727565b60f81b818381518110610eb457634e487b7160e01b600052603260045260246000fd5b60200101907effffffffffffffffffffffffffffffffffffffffffffffffffffffffffffff1916908160001a905350610eee600a8661173f565b9450610e68565b949350505050565b610f17828260405180602001604052806000815250610f1b565b5050565b610f258383610fa9565b610f3260008484846110ca565b610fa45760405162461bcd60e51b815260206004820152603260248201527f4552433732313a207472616e7366657220746f206e6f6e20455243373231526560448201527f63656976657220696d706c656d656e746572000000000000000000000000000060648201526084016104b4565b505050565b6001600160a01b038216610fff5760405162461bcd60e51b815260206004820181905260248201527f4552433732313a206d696e7420746f20746865207a65726f206164647265737360448201526064016104b4565b6000818152600360205260409020546001600160a01b0316156110645760405162461bcd60e51b815260206004820152601c60248201527f4552433732313a20746f6b656e20616c7265616479206d696e7465640000000060448201526064016104b4565b600081815260036020526040808220805473ffffffffffffffffffffffffffffffffffffffff19166001600160a01b03861690811790915590518392907fddf252ad1be2c89b69c2b068fc378daa952ba7f163c4a11628f55a4df523b3ef908290a45050565b60006001600160a01b0384163b1561122257604051630a85bd0160e11b81526001600160a01b0385169063150b7a029061110e903390899088908890600401611630565b602060405180830381600087803b15801561112857600080fd5b505af1925050508015611158575060408051601f3d908101601f19168201909252611155918101906115a1565b60015b611208573d808015611186576040519150601f19603f3d011682016040523d82523d6000602084013e61118b565b606091505b5080516112005760405162461bcd60e51b815260206004820152603260248201527f4552433732313a207472616e7366657220746f206e6f6e20455243373231526560448201527f63656976657220696d706c656d656e746572000000000000000000000000000060648201526084016104b4565b805181602001fd5b6001600160e01b031916630a85bd0160e11b149050610ef5565b506001949350505050565b8280546112399061179a565b90600052602060002090601f01602090048101928261125b57600085556112a1565b82601f1061127457805160ff19168380011785556112a1565b828001600101855582156112a1579182015b828111156112a1578251825591602001919060010190611286565b506112ad9291506112b1565b5090565b5b808211156112ad57600081556001016112b2565b80356001600160a01b038116811461073457600080fd5b600082601f8301126112ed578081fd5b813567ffffffffffffffff8082111561130857611308611830565b604051601f8301601f19908116603f0116810190828211818310171561133057611330611830565b81604052838152866020858801011115611348578485fd5b8360208701602083013792830160200193909352509392505050565b600060208284031215611375578081fd5b610abd826112c6565b60008060408385031215611390578081fd5b611399836112c6565b91506113a7602084016112c6565b90509250929050565b6000806000606084860312156113c4578081fd5b6113cd846112c6565b92506113db602085016112c6565b9150604084013590509250925092565b600080600080600060808688031215611402578081fd5b61140b866112c6565b9450611419602087016112c6565b935060408601359250606086013567ffffffffffffffff8082111561143c578283fd5b818801915088601f83011261144f578283fd5b81358181111561145d578384fd5b89602082850101111561146e578384fd5b9699959850939650602001949392505050565b60008060408385031215611493578182fd5b61149c836112c6565b9150602083013580151581146114b0578182fd5b809150509250929050565b600080604083850312156114cd578182fd5b6114d6836112c6565b9150602083013567ffffffffffffffff8111156114f1578182fd5b6114fd858286016112dd565b9150509250929050565b60008060006060848603121561151b578283fd5b611524846112c6565b9250602084013567ffffffffffffffff81111561153f578283fd5b61154b868287016112dd565b925050604084013590509250925092565b6000806040838503121561156e578182fd5b611577836112c6565b946020939093013593505050565b600060208284031215611596578081fd5b8135610abd81611846565b6000602082840312156115b2578081fd5b8151610abd81611846565b6000602082840312156115ce578081fd5b5035919050565b600081518084526115ed81602086016020860161176a565b601f01601f19169290920160200192915050565b6000835161161381846020880161176a565b83519083019061162781836020880161176a565b01949350505050565b60006001600160a01b0380871683528086166020840152508360408301526080606083015261166260808301846115d5565b9695505050505050565b60006020808301818452808551808352604092508286019150828160051b870101848801865b838110156116dc57888303603f19018552815180518452878101518885015286015160608785018190526116c8818601836115d5565b968901969450505090860190600101611692565b509098975050505050505050565b602081526000610abd60208301846115d5565b60608152600061171060608301866115d5565b602083019490945250901515604090910152919050565b6000821982111561173a5761173a611804565b500190565b60008261174e5761174e61181a565b500490565b60008282101561176557611765611804565b500390565b60005b8381101561178557818101518382015260200161176d565b83811115611794576000848401525b50505050565b600181811c908216806117ae57607f821691505b602082108114156117cf57634e487b7160e01b600052602260045260246000fd5b50919050565b60006000198214156117e9576117e9611804565b5060010190565b6000826117ff576117ff61181a565b500690565b634e487b7160e01b600052601160045260246000fd5b634e487b7160e01b600052601260045260246000fd5b634e487b7160e01b600052604160045260246000fd5b6001600160e01b031981168114610c5357600080fdfea26469706673582212202227ad38c9f4d2741adc63e0e03d4f8a1a83acd37d622b6782fa75cbcf28940864736f6c63430008040033",
  "linkReferences": {},
  "deployedLinkReferences": {}
}